:020000040800F2
:10000000A8040020A10100080F140008F91200083C
:100010000D140008AD020008691700080000000078
:1000200000000000000000000000000013140008A1
:10003000AF020008000000001114000815140008A9
:10004000BB010008BB010008BB010008BB010008A0
:10005000BB010008BB010008BB010008BB01000890
:10006000BB010008BB010008BB010008BB01000880
:10007000BB010008BB010008BB010008BB01000870
:10008000BB010008BB010008BB010008BB01000860
:10009000BB010008BB010008BB010008BB01000850
:1000A000BB010008BB010008BB010008BB01000840
:1000B000BB010008BB010008BB010008BB01000830
:1000C000BB010008BB010008BB010008BB01000820
:1000D000BB010008BB0100085D170008BB01000858
:1000E000BB010008BB010008BB010008BB01000800
:1000F000BB010008BB010008BB010008BB010008F0
:10010000BB010008BB010008BB010008BB010008DF
:10011000BB010008BB010008BB010008BB010008CF
:10012000BB010008BB010008BB010008BB010008BF
:10013000BB010008BB010008BB010008BB010008AF
:10014000BB010008BB010008BB010008BB0100089F
:10015000BB010008BB010008BB010008BB0100088F
:10016000BB010008BB010008BB010008BB0100087F
:10017000BB010008BB010008BB0100080000000033
:10018000BB010008BB010008DFF810D000F07CF8CC
:10019000004800473D1C0008AFF30080A804002081
:1001A0000648804706480047FEE7FEE7FEE7FEE711
:1001B000FEE7FEE7FEE7FEE7FEE7FEE7AD14000818
:1001C000890100082DE9F05F0546002092469B4614
:1001D00088460646814640241BE02846414647465D
:1001E000224600F041F853465A46C01A914110D3B6
:1001F00011461846224600F028F82D1A67EB010830
:100200004F4622460120002100F01FF817EB00099D
:100210004E41201EA4F10104DFDC484631462A4647
:100220004346BDE8F09FD2B201E000F8012B491E21
:10023000FBD270470022F6E710B513460A46044683
:100240001946FFF7F0FF204610BD202A04DB203AB4
:1002500000FA02F1002070479140C2F1200320FA19
:1002600003F3194390407047202A04DB203A21FA17
:1002700002F00021704721FA02F3D040C2F12002BF
:100280009140084319467047064C074D06E0E06868
:1002900040F0010394E8070098471034AC42F6D3CD
:1002A000FFF776FFEC1D00080C1E0008FEE7704704
:1002B00072B6FEE72DE9F0410446876D00F04AFA78
:1002C000064694F835000025022806D08020606597
:1002D00084F834500120BDE8F0812068016821F0E5
:1002E000160101602068416921F080014161206CA4
:1002F00008B9A06C20B12068016821F008010160F4
:100300002068016821F0010101600CE000F022FA90
:10031000801B052807D920206065032084F835005C
:1003200084F83450D7E720680068C007EED194F80D
:100330005C103F208840B860012084F8350084F8C4
:1003400034500020C7E790F83510022903D08021EF
:10035000416501207047052180F83510006801686B
:1003600021F0010101600020704700000E4910B526
:100370000C48086000200860091D0C4A0A600860EB
:1003800009490B4A10390A600860C122091D0A6038
:1003900008600122091D0A60086000F023FA0020AD
:1003A00010BD0000FFC9FEF6203802403379770403
:1003B000FF11602270B5044600F0CCF90546601CC0
:1003C00002D004480078044400F0C4F9401BA04265
:1003D000FAD370BD000000202DE9F04F0022DFF8B5
:1003E00038B101264FF00F0906FA02F401EA0403BE
:1003F000A3427DD122F003075F44D7F80888950710
:100400004FEA157C09FA0CFA0AEA0805DFF80C81B4
:10041000404502D14FF0000832E0DFF8048140454A
:1004200002D14FF001082BE0DFF8F880404502D1FF
:100430004FF0020824E0DFF8F080404502D14FF091
:1004400003081DE0DFF8E480404502D14FF00408C6
:1004500016E0DFF8DC80404502D14FF005080FE0E0
:10046000DFF8D080404502D14FF0060808E0DFF801
:10047000C880404502D14FF0070801E04FF008085E
:1004800008FA0CF8A84522D12C4DD5F800C02CEA6A
:10049000030CC5F800C005F1040CDCF800509D43C6
:1004A000CCF80050254D0C35D5F800C02CEA030CD3
:1004B000C5F800C02D1FD5F800C02CEA030CC5F804
:1004C00000C0D7F8085825EA0A05C7F80858056893
:1004D00057000323BB409D430560D50800EB85050D
:1004E000D5F820C057074FEAD76809FA08F700E0A7
:1004F0000CE02CEA070CC5F820C0C5689D43C56018
:100500004568A543456084689C438460521C102A5A
:10051000FFF46AAFBDE8F08F0030014000000240F8
:100520000004024000080240000C0240001002409B
:100530000014024000180240001C0240003C014030
:100540002DE9F84FDFF8BCA10022012503264FF06A
:100550000F090AF1040BAAF1040E00BF0B6805FA9B
:1005600002F42340A34270D10F7907F00307012F53
:1005700001D0022F16D187684FEA420806FA08FC1C
:1005800027EA0C07D1F80CC00CFA08FC4CEA070C5F
:10059000C0F808C04768A7430C79C4F3001494401E
:1005A0003C4344600C79E443A4070AD0C4684FEA92
:1005B000420C06FA0CF7BC438F6807FA0CF7274386
:1005C000C7600C7904F00304022C12D1D40800EBAC
:1005D000840CDCF820405707FF0E09FA07F824EADC
:1005E0000804D1F8108008FA07F848EA0408CCF8A3
:1005F000208004684FEA420C06FA0CF7BC430F79DE
:1006000007F0030707FA0CF7274307604C6814F458
:10061000403F70D03C4C276847F4804727602468EF
:1006200022F0030704F480440094384C07EB040CD8
:10063000DCF8084897074FEA177809FA08F7BC432F
:10064000334FB84202D1002724E054E0314FB84282
:1006500001D101271EE0304FB84201D1022719E035
:100660002E4FB84201D1032714E02D4FB84201D1DB
:1006700004270FE02B4FB84201D105270AE02A4F8B
:10068000B84201D1062705E0284FB84201D107271B
:1006900000E0082707FA08F72743CCF80878DAF8CB
:1006A00000405746D1F804C09C435FEACC2C00D5EB
:1006B0001C433C60DBF800405F46D1F804C09C431B
:1006C0005FEA8C2C00D51C433C60DEF80040774686
:1006D000D1F804C09C435FEA8C3C00D51C433C60CD
:1006E000084F083F3C68D1F804C09C435FEACC3C0B
:1006F00000D51C433C60521C102AFFF42FAFBDE80C
:10070000F88F0000083C01404438024000300140AE
:10071000000002400004024000080240000C0240B9
:10072000001002400014024000180240001C024069
:100730000069084000D001207047426921EA0203A5
:100740000A4043EA0241816170470AB18161704702
:100750000904FBE7014880687047000000000020A2
:1007600002488168027811448160704700000020CF
:100770000B4810B5016841F400710160016841F453
:1007800080610160016841F480710160032000F024
:1007900081F80F2000F006F800F026F8002010BDC8
:1007A000003C024070B50D4D04464FF47A71287834
:1007B000B1FBF0F00A490968B1FBF0F000F01CFB56
:1007C00048B9102C07D200222146501E00F042F8F2
:1007D00000206C6070BD012070BD00000000002092
:1007E0000C000020704700000A4808B5016841F479
:1007F00080410160006800F4804000900548001FBF
:10080000016841F080510160006800F08050009064
:1008100008BD00004438024000280DDB00F01F0234
:10082000012191404009800000F1E020C0F88011D2
:10083000BFF34F8FBFF36F8F7047002809DB00F0C5
:100840001F02012191404009800000F1E020C0F822
:1008500000117047F0B40E4B1B680C46C3F3022323
:10086000C3F10705042D00D90425191D072901D25C
:10087000002300E0DB1E012606FA05F1491E214097
:1008800099409E40761E16403143F0BC00F07EBF7A
:100890000CED00E0064900F0070208684FF6FF0380
:1008A000184040EA0220034A1043086070470000E5
:1008B0000CED00E00000FA052DE9F0470E460500BA
:1008C00065D0DFF81481D8F80000F7B200F0070017
:1008D000B04207D288F80070D8F8000000F0070096
:1008E000B04254D128683D4C810712D5400703D54A
:1008F000206840F4E05020602878000703D5206885
:1009000040F4604020602068A96820F0F0000843AF
:1009100020602878C0072DD0304968680839012840
:1009200012D0022813D0032811D0096889070029A2
:100930002DDA216821F0030101432160FFF70AFF4E
:10094000814641F2883A0EE009688903EFE70968B9
:100950008901ECE7FFF7FEFEA0EB0901514502D942
:100960000320BDE8F0872068696800F00C00B0EB58
:10097000810FEFD1D8F80010404601F00701B142D5
:1009800007D90770006800F00700B04201D00120CD
:10099000E7E72878400705D52068E96820F4E050AB
:1009A000084320602878000706D52068296920F4CC
:1009B000604040EAC100206000F038F82168084A31
:1009C000C1F30311515CC84006490860064800683D
:1009D000FFF7E8FE0020C4E7003C02400838024070
:1009E000D41D00080C000020040000200448054924
:1009F00000680968044AC1F38221515CC84070470D
:100A00000C00002008380240E41D00080448054995
:100A100000680968044AC1F34231515CC84070471C
:100A20000C00002008380240E41D0008154810B5ED
:100A3000006810F00C02144813D04110042A0FD0A3
:100A4000082A0ED10F4C241F2268236802F03F02AF
:100A50005B0207D52068C0F38810A0FB010106E007
:100A6000084610BD2168C1F38811A1FB00010023D5
:100A7000FFF7A8FB2168C1F30141491C4900B0FB05
:100A8000F1F010BD083802400024F4002DE9F84FC1
:100A900004006ED02078DFF84C93C007A9F104055C
:100AA0004AD009F104000168C1F38101012908D08D
:100AB0000068C0F3810002280AD1D9F80000400282
:100AC00006D52868800337D560680028E1D033E078
:100AD0006068B0F5803F10D0B0F5A02F286810D026
:100AE00020F480302860286820F480202860606826
:100AF000A8B1FFF72FFE06460DE0286840F48030CD
:100B0000F4E740F480202860F7E700BFFFF722FEFB
:100B1000801B642873D828688003F7D50CE0FFF7A2
:100B200019FE064605E000BFFFF714FE801B64288F
:100B3000F0D828688003F7D42078DFF8AC828007EB
:100B40004FF0000A3ED5A748001D016811F00C0FB8
:100B500008D00068C0F3810002280BD1D9F800004A
:100B6000400207D42868800716D5E068012800D124
:100B700012E033E1E068B8B10120C8F80000FFF7E7
:100B8000E9FD064605E000BFFFF7E4FD801B0228F3
:100B9000C0D828688007F7D52868216920F0F800B8
:100BA00040EAC10028600DE0C8F800A0FFF7D2FDC0
:100BB000064604E0FFF7CEFD801B02281FD82868F8
:100BC0008007F7D42078000722D5864F87486169CF
:100BD000703771B101210160FFF7BCFD064604E0EA
:100BE000FFF7B8FD801B022809D838688007F7D5C1
:100BF0000EE0C0F800A0FFF7ADFD064605E082E07C
:100C0000FFF7A8FD801B02287DD838688007F7D43D
:100C10002078400768D5DFF8CCB100270BF13C0BFA
:100C2000DBF80000C0000BD4DBF8001041F080516D
:100C3000CBF80010DBF80000012700F08050009096
:100C40006B4E3068C00510D4306840F4807030605E
:100C5000FFF780FD009005E0FFF77CFD0099401A4A
:100C6000022850D83068C005F6D55E4EA0686C36B4
:100C700001280FD00528306810D020F00100306026
:100C8000306820F004003060A068B8B1FFF762FD62
:100C900000900FE0306840F00100F4E740F00400FD
:100CA0003060F7E7FFF756FD0099411A41F28830AE
:100CB000814266D830688007F4D50EE0FFF74AFD20
:100CC000009007E0FFF746FD0099411A41F2883095
:100CD000814256D830688007F4D42FB1DBF8001079
:100CE00021F08051CBF80010A069C8B33D49091D1F
:100CF0000968C1F3810102294AD00228504607D071
:100D0000C8F8600000E03CE0FFF724FD04463BE04B
:100D10004746C8F86000FFF71DFD064605E000BF26
:100D2000FFF718FD801B02282BD828688001F7D414
:100D3000D4E907010843A16A2E4A490802EB0141A0
:100D4000626A41EA8211084394F82C1040EA01617A
:100D5000C9F8001001203866FFF7FCFC044606E0E5
:100D60003EE000BFFFF7F6FC001B022809D8286808
:100D70008001F7D534E000BFFFF7ECFC001B022830
:100D800002D90320BDE8F88F28688001F4D427E059
:100D90000128F7D0D9F80000E26900F480019142FF
:100DA0001CD1226A00F03F01914217D147F6C07171
:100DB000626A0140B1EB821F10D1A26A4FF0FF338B
:100DC00000F4403103EB5202B1EB024F06D194F82C
:100DD0002C1000F07060B0EB016F01D00120D1E762
:100DE0000020CFE70438024000004742800E47420F
:100DF000007000400000FFFF10B5401EB0F1807F82
:100E000001D3012010BD4FF0E02460610F21601775
:100E100000F0BCFC0020A06107202061002010BD74
:100E2000704710B5040015D0242084F841002068D4
:100E3000C16821F40051C160204600F081F9002012
:100E4000606484F8410084F8420044F8300F606028
:100E5000207410BD012010BD70470000F8B5016876
:100E600004460868CA684B6910F00F0F4FF0000580
:100E700059D003F0010602F49077374365D0C107DB
:100E800005D0D10503D5616C41F0010161644107D2
:100E900005D5D90703D0616C41F002016164810777
:100EA00005D5D90703D0616C41F0040161640107E5
:100EB00007D502F02001314303D0616C41F00801F5
:100EC0006164616C00293AD0800604D5900602D591
:100ED000204600F021FB20684069616CC0F380105F
:100EE000090700D460B3204600F0EFFA206840699B
:100EF000400621D52068143050E8001F21F0400141
:100F000040E80012002AF5D1E06BA8B172490165F2
:100F1000E06BFFF718FA002811D0E06B016D01B00B
:100F2000BDE8F040084783060FD593060DD520464F
:100F3000BDE8F84000F0F0BA2046FFF78DFFF8BD9D
:100F40002046FFF789FF6564F8BD266B2023012E3C
:100F50007ED1C6067CD5D6067AD50868486800904A
:100F600048694FF0020640064DD5E26B10684068B4
:100F70004FF480770004000C3AD0A18D814237D91C
:100F8000E085D069B8422DD020680C3050E8001FB1
:100F900021F4807140E80012002AF5D12068143055
:100FA00050E8001F21F0010140E80012002AF5D1AD
:100FB0002068143050E8001F21F0400140E8001282
:100FC000002AF5D184F84230256320680C3050E8BF
:100FD000001F21F0100140E80012002AF5D1E06B5B
:100FE000FFF768F96663A08DE18D401A81B206E0D3
:100FF000A18D8142A8D1D069B842A5D166632046AF
:10100000FFF70EFFF8BDA08DE18D401A81B2E08D93
:101010000028F7D00029F5D020680C3050E8002FC8
:1010200022F4907240E80027002FF5D12068143098
:1010300050E8002F22F0010240E80027002FF5D1F0
:1010400084F84230256320680C3050E8002F00E01F
:1010500006E022F0100240E80023002BF3D1CDE798
:1010600005062BD5150629D594F841002128C9D1AC
:10107000A068B0F5805F01D12069B0B1206A411C41
:101080002162216800784860E08C401E0004000C5A
:10109000E084B7D12068C16821F08001C160206878
:1010A000C16841F04001C160F8BD206A0088C0F30A
:1010B00008004860206A801C2062E5E74006F3D5FE
:1010C0005006F1D5CA68204622F04002CA6084F872
:1010D000413000F010F9F8BDBD14000870B50400EF
:1010E00004D094F84100002510B106E0012070BD45
:1010F00084F84050204600F04FF8242084F8410046
:101100002068C16821F40051C160204600F066FAF1
:101110002068016921F4904101612068416921F052
:101120002A0141612068C16841F40051C1606564D1
:10113000202084F8410084F842006563002070BDDF
:1011400010B5114A0168114891420AD110490A6844
:1011500022F010020A60BDE810404FF4C061FFF7B2
:101160003BB90C4A91420DD10949091F0A6822F482
:1011700000320A600C21FFF72FF9BDE8104026204D
:10118000FFF74ABB10BD0000001001400000024004
:101190004438024000440040F0B587B004461421B2
:1011A0006846FFF747F8274F2368002226490224A4
:1011B000032507262548BB421CD1234B14331F6847
:1011C00047F010071F601B6803F0100305930B68BE
:1011D00043F001030B60096802AB01F001010591C6
:1011E0006902CDE9001483E864006946FFF7A8F9B5
:1011F00007B0F0BD164FBB42FAD1134B10331F6836
:1012000047F400371F601B6803F4003305930B6835
:1012100043F001030B60096802AB01F00101059185
:101220000C21CDE9001483E864006946FFF788F9D2
:10123000002211462620FFF70DFB2620FFF7FDFABE
:10124000D6E70000001001403038024000000240A4
:101250000044004070472DE9F843044690F84100EF
:10126000984616460D46202802D00220BDE8F88395
:1012700085B17EB100206064212084F84100FFF731
:1012800069FAA6848146E684A0682027B0F5805FCD
:1012900002D003E00120E9E7206910B12E460025C5
:1012A0000EE000260CE08021204600F01DFAA8B9CF
:1012B000C6B116F8010B21684860E08C401EE0843E
:1012C000E08C4B464FF00002CDF800800028EAD1B8
:1012D0004FF04001204600F007FA40B184F8417019
:1012E0000320C3E735F8020BC0F30800E3E784F8F6
:1012F00041700020BAE77047FEE70000F0B587B004
:1013000014216846FEF796FF21480024016841F049
:1013100010010160016801F010010591016841F0C0
:1013200004010160016801F004010591016841F0C8
:1013300020010160016801F020010591016841F080
:1013400080010160016801F080010591016841F0B0
:101350000101016000680F4F00F001004FF40076BA
:101360000590002231463846FFF7EFF908200125A5
:101370008DE8310069460848FFF7E2F80096CDE9AC
:101380000154694638460394FFF7DAF807B0F0BD18
:101390003038024000140240001002400C4810B5E2
:1013A0000A4901604FF4E1314160002181600C2263
:1013B000C160C0E904128161C161FFF78FFE00289E
:1013C00003D0BDE81040FEF773BF10BD0010014010
:1013D000140000200C4810B50A4901604FF4E131B7
:1013E0004160002181600C22C160C0E9041281616A
:1013F000C161FFF773FE002803D0BDE81040FEF77F
:1014000057BF10BD004400405C000020FEE7FEE72F
:1014100070477047FFF7A4B930B593B030216846E4
:10142000FEF708FF14210CA8FEF704FF1D48002555
:10143000016841F080510160006800F08050119017
:101440001948016841F4804101600068022400F4F9
:101450008040119001200390102004900094069485
:101460000820CDE90750A820CDE9090404200B90FD
:101470006846FFF70BFB08B172B6FEE70CA90F2018
:1014800081E831004FF4A0500F904FF4805010903D
:1014900005210CA8FFF710FA002801D072B6FEE76C
:1014A00013B030BD4038024000700040024801686F
:1014B00041F470010160704788ED00E010B5806B69
:1014C0000021C185FFF7C8FC10BD01680C3151E84F
:1014D000002F22F4907241E80023002BF5D101681F
:1014E000143151E8002F22F0010241E80023002BC3
:1014F000F5D1016B012909D101680C3151E8002FA8
:1015000022F0100241E80023002BF5D1202180F8C1
:10151000421000210163704708B590F8421022295B
:1015200001D0022008BD82684FF480539A4201D155
:10153000016921B1816A9A421BD04AB10AE002686E
:10154000816A5268C2F308020A80816A891C08E035
:10155000026972B10268526802F07F020A70816A01
:10156000491C8162C18D491E0904090CC18503D043
:101570001BE002685268F1E70168CA6822F02002A5
:10158000CA600168CA6822F48072CA6001684A6948
:1015900022F001024A61202180F8421000214163BB
:1015A000026B012A03D0FFF755FE002008BD01633E
:1015B00001680C3151E8002F22F0100241E80023AD
:1015C000002BF5D101680A68D20602D50A6849687D
:1015D0000091818DFFF724FCE7E7000070B5044619
:1015E00000680169E26821F44051114301612169F9
:1015F000A068E26908436169114308432168CA6829
:1016000049F20C639A430243CA6020684169A269A7
:1016100021F440711143416131492068884202D070
:101620003049884202D1FFF7F1F901E0FFF7DEF916
:10163000E2690023192164253226B2F5004F626861
:1016400028D0A0FB0101930F9200FEF7BBFD0146DD
:10165000B0FBF5F06FF01802504301EB800006EB91
:101660000010B0FBF5F000F0F002B1FBF5F002EB7A
:101670000012B1FBF5F06FF01803584301EB800046
:1016800006EB0010B0FBF5F000F00F0021681044ED
:10169000886070BDA0FB010192185B41FEF792FDCE
:1016A0000146B0FBF5F00201B1FBF5F06FF0180355
:1016B000584301EB800006EBC000B0FBF5F000F0F2
:1016C000F80002EB4002B1FBF5F0584301EB80005B
:1016D00006EBC000B0FBF5F000F00700D6E7000015
:1016E00000100140001401402DE9F84398461746C8
:1016F0000D460446089E24E0701C22D0FFF72AF80D
:10170000A0EB0800B0421AD8CEB12068C1684907E2
:1017100017D5802D15D0402D13D00168C943090776
:101720000FD401680025406800902046FFF7CDFEE9
:101730000820606484F840500120BDE8F88303204D
:10174000FBE72068006835EA000004D00020B842BA
:10175000D2D00020F1E70120F9E700000148FFF7AF
:101760007DBB00005C000020FEE700000FB4054BCD
:1017700010B503A9044A029800F028F810BC5DF8DF
:1017800014FB0000251C0008100000200907090EAA
:10179000002804DB00F1E02080F80014704700F01E
:1017A0000F0000F1E02080F8141D704702E008C827
:1017B000121F08C1002AFAD170477047002001E0CB
:1017C00001C1121F002AFBD1704700002DE9FF4F15
:1017D0008DB00F460546002606E025280BD0DDE932
:1017E0000F1290476D1C761C28780028F5D111B097
:1017F0003046BDE8F08F0024A246A1460122E94907
:1018000000E0044315F8013F203B02FA03F00842D0
:10181000F7D128782A2810D06FF02F022878A0F16D
:101820003001092914D80AEB8A0102EB410144F086
:10183000020400EB010A6D1CF0E701CF5FEA000A29
:1018400003D544F40054CAF1000A44F002046D1CAC
:1018500028782E2817D115F8010F44F004042A28FF
:101860000ED06FF02F022878A0F1300109290AD894
:1018700009EB890102EB410100EB01096D1CF2E764
:1018800057F8049B6D1C28786C280FD006DC4C2878
:1018900017D068280DD06A2814D104E0742810D01D
:1018A0007A280FD10DE044F400140AE044F48014C7
:1018B00001E044F440146978814202D104F58014B7
:1018C0006D1C6D1C28786E281ED00CDC632830D06F
:1018D00004DC00288BD0582811D19FE0642867D001
:1018E00069280CD164E073282DD004DC6F2872D0F5
:1018F000702804D194E075286ED078286DD0DDE989
:101900000F129047761C4BE1C4F30250022806D018
:10191000032809D0042801CF09D0066040E101CF97
:10192000F117C0E900613BE101CF068038E10670A4
:1019300036E117F8040B8DF8000000208DF8010047
:10194000EB46012003E057F804BB4FF0FF3061077E
:101950004FF0000102D40DE008F10101884649452D
:101960000FDA8045F8DB1BF808100029F4D108E0F5
:1019700008F1010188468142FADB1BF808100029B2
:10198000F6D1DDE90F23AAEB08008146214600F0DD
:1019900031F9304400EB080604E0DDE90F121BF8D2
:1019A000010B9047B8F10108F7D221464846F2E012
:1019B0000A21C4F302524FF0000B0891022A04D00E
:1019C00001CFC117032A09D00AE0FF1D27F007073E
:1019D000F7E8020108E02CE01EE01FE000B2C117AA
:1019E000042A01D140B2C117021E71F1000206DAC9
:1019F0000023D0EB030063EB01012D2202E022055E
:101A000004D52B228DF82420012203E0E20701D027
:101A10002022F7E7904653E00A210BE0102109E06D
:101A200010214FF0000B44F004044FF00809089116
:101A300003E008214FF0000B0891C4F30252022A80
:101A400004D001CF0021032A06D006E0FF1D27F0B5
:101A50000707F7E8020103E080B2042A00D1C0B210
:101A60004FF0000822072BD52A78702A07D0DDF81E
:101A700020C08CF0100C5CEA0B0C05D00EE040226C
:101A80008DF82420012208E050EA010306D030231B
:101A90008DF824308DF8252002229046089B83F093
:101AA000080353EA0B030BD150EA010201D162078C
:101AB00006D530228DF824204FF00108A9F1010944
:101AC0002A78582A04D038A20B9208AA0A920BE06E
:101AD0003AA2F9E75B46089AFEF774FB0B9B9B5C06
:101AE0000A9A521E0A92137050EA0102F2D10A9821
:101AF000ADEB000000F1200B600702D524F4803428
:101B000001E04FF00109D94502DDA9EB0B0000E02F
:101B1000002000EB0B0141440890AAEB010AE0030E
:101B200006D4DDE90F232146504600F063F8064451
:101B30004FF0000908E009A911F80900DDE90F12CA
:101B4000904709F10109761CC145F4DBE0030CD58F
:101B5000DDE90F232146504600F04CF8064404E02E
:101B6000DDE90F1230209047761C0899481E089036
:101B70000029F5DC08E00A980A990078491C0A91C6
:101B8000DDE90F129047761CBBF10001ABF1010BB0
:101B9000F1DC21465046DDE90F2300F019F8064438
:101BA0006D1C21E6092801003031323334353637D7
:101BB0003839616263646566000000003031323399
:101BC0003435363738394142434445460000000039
:101BD0002DE9F041044600251E461746880404D42A
:101BE00005E039462020B0476D1C641EF9D5284613
:101BF000BDE8F0812DE9F041044600251E469046DF
:101C0000C80301D5302700E02027880404D505E06B
:101C100041463846B0476D1C641EF9D52846BDE8DC
:101C2000F081000013B56423012269460248FFF7E2
:101C300012FB00981CBD000014000020FEF798FD68
:101C4000FFF7EAFBFFF75AFBFFF7A8FBFFF7C2FB22
:101C500032A0FFF78BFD4FF47A70FEF7ABFB344CEC
:101C600021686668A1F100500025B0F5003F12D848
:101C700060423044B0F5602F0DD22EA0FFF776FD04
:101C8000314632A0FFF772FD36A0FFF76FFD6420EA
:101C9000FEF790FB02E03BA0FFF768FD424F0821F2
:101CA0003846FEF745FD70BB6420FEF783FB082134
:101CB0003846FEF73DFD30BB3CA0FFF757FDD4F89A
:101CC0000080666872B63F48FFF7ABF83E48FFF702
:101CD000A8F8FEF74BFB4FF0E020056145618561F8
:101CE0000020421E810001F1E021C1F88021C1F8ED
:101CF0008022401CC0B20828F4D334490C6088F319
:101D0000088862B6B0474FF400713148FEF715FD00
:101D10004FF4FA70FEF74EFBC1E70000626F6F747C
:101D20006C6F616465722073746172740D0A0000D7
:101D3000000002086170705F6D73702020203D20EC
:101D40003078253038580D0A000000006170705F4F
:101D50007265736574203D203078253038580D0A3F
:101D60000000000076616C6964206170702C20773F
:101D7000616974206B657920746F206A756D700DD0
:101D80000A0000006E6F2076616C696420617070DB
:101D90002C207374617920696E20626F6F746C6F90
:101DA000616465720D0A000000100240626F6F747A
:101DB0005F6A756D705F746F5F6170705F72616E86
:101DC0000D0A0000140000205C00002008ED00E077
:101DD00000140240000000000000000001020304A3
:101DE0000607080900000000010203040C1E000899
:101DF0000000002014000000AC170008201E00089E
:101E00001400002094040000BC170008010000002A
:101E100010000000000000000024F400000000009A
:040000050800018965
:00000001FF
